{"abi":[{"type":"function","name":"cancelOwnershipHandover","inputs":[],"outputs":[],"stateMutability":"payable"},{"type":"function","name":"completeOwnershipHandover","inputs":[{"name":"pendingOwner","type":"address","internalType":"address"}],"outputs":[],"stateMutability":"payable"},{"type":"function","name":"getBp","inputs":[],"outputs":[{"name":"","type":"uint16","internalType":"uint16"}],"stateMutability":"view"},{"type":"function","name":"owner","inputs":[],"outputs":[{"name":"result","type":"address","internalType":"address"}],"stateMutability":"view"},{"type":"function","name":"ownershipHandoverExpiresAt","inputs":[{"name":"pendingOwner","type":"address","internalType":"address"}],"outputs":[{"name":"result","type":"uint256","internalType":"uint256"}],"stateMutability":"view"},{"type":"function","name":"programIdentifier","inputs":[{"name":"zkCoProcessorType","type":"uint8","internalType":"uint8"}],"outputs":[{"name":"","type":"bytes32","internalType":"bytes32"}],"stateMutability":"view"},{"type":"function","name":"quoteVerifiers","inputs":[{"name":"quoteVersion","type":"uint16","internalType":"uint16"}],"outputs":[{"name":"verifier","type":"address","internalType":"contract IQuoteVerifier"}],"stateMutability":"view"},{"type":"function","name":"renounceOwnership","inputs":[],"outputs":[],"stateMutability":"payable"},{"type":"function","name":"requestOwnershipHandover","inputs":[],"outputs":[],"stateMutability":"payable"},{"type":"function","name":"setBp","inputs":[{"name":"_newBp","type":"uint16","internalType":"uint16"}],"outputs":[],"stateMutability":"nonpayable"},{"type":"function","name":"setQuoteVerifier","inputs":[{"name":"verifier","type":"address","internalType":"address"}],"outputs":[],"stateMutability":"nonpayable"},{"type":"function","name":"setZkConfiguration","inputs":[{"name":"zkCoProcessor","type":"uint8","internalType":"enum ZkCoProcessorType"},{"name":"config","type":"tuple","internalType":"struct ZkCoProcessorConfig","components":[{"name":"dcapProgramIdentifier","type":"bytes32","internalType":"bytes32"},{"name":"zkVerifier","type":"address","internalType":"address"}]}],"outputs":[],"stateMutability":"nonpayable"},{"type":"function","name":"transferOwnership","inputs":[{"name":"newOwner","type":"address","internalType":"address"}],"outputs":[],"stateMutability":"payable"},{"type":"function","name":"verifyAndAttestOnChain","inputs":[{"name":"rawQuote","type":"bytes","internalType":"bytes"}],"outputs":[{"name":"success","type":"bool","internalType":"bool"},{"name":"output","type":"bytes","internalType":"bytes"}],"stateMutability":"payable"},{"type":"function","name":"verifyAndAttestWithZKProof","inputs":[{"name":"output","type":"bytes","internalType":"bytes"},{"name":"zkCoprocessor","type":"uint8","internalType":"enum ZkCoProcessorType"},{"name":"proofBytes","type":"bytes","internalType":"bytes"}],"outputs":[{"name":"success","type":"bool","internalType":"bool"},{"name":"verifiedOutput","type":"bytes","internalType":"bytes"}],"stateMutability":"payable"},{"type":"function","name":"withdraw","inputs":[{"name":"beneficiary","type":"address","internalType":"address"},{"name":"amount","type":"uint256","internalType":"uint256"}],"outputs":[],"stateMutability":"nonpayable"},{"type":"function","name":"zkVerifier","inputs":[{"name":"zkCoProcessorType","type":"uint8","internalType":"uint8"}],"outputs":[{"name":"","type":"address","internalType":"address"}],"stateMutability":"view"},{"type":"event","name":"AttestationSubmitted","inputs":[{"name":"success","type":"bool","indexed":false,"internalType":"bool"},{"name":"verifierType","type":"uint8","indexed":false,"internalType":"enum ZkCoProcessorType"},{"name":"output","type":"bytes","indexed":false,"internalType":"bytes"}],"anonymous":false},{"type":"event","name":"OwnershipHandoverCanceled","inputs":[{"name":"pendingOwner","type":"address","indexed":true,"internalType":"address"}],"anonymous":false},{"type":"event","name":"OwnershipHandoverRequested","inputs":[{"name":"pendingOwner","type":"address","indexed":true,"internalType":"address"}],"anonymous":false},{"type":"event","name":"OwnershipTransferred","inputs":[{"name":"oldOwner","type":"address","indexed":true,"internalType":"address"},{"name":"newOwner","type":"address","indexed":true,"internalType":"address"}],"anonymous":false},{"type":"error","name":"AlreadyInitialized","inputs":[]},{"type":"error","name":"BP_Not_Valid","inputs":[]},{"type":"error","name":"Insuccifient_Funds","inputs":[]},{"type":"error","name":"NewOwnerIsZeroAddress","inputs":[]},{"type":"error","name":"NoHandoverRequest","inputs":[]},{"type":"error","name":"Unauthorized","inputs":[]},{"type":"error","name":"Unknown_Zk_Coprocessor","inputs":[]},{"type":"error","name":"Withdrawal_Failed","inputs":[]}],"bytecode":{"object":"0x60806040523460465733638b78c6d819553360007f8be0079c531659141344cd1fd0a4f28419497f9722a3daafe3b4186f6b6457e08180a360405161109e908161004c8239f35b600080fdfe6080604052600436101561001257600080fd5b60003560e01c806325692962146106b957806325e11c751461061e5780633043d2b1146105e257806338d8480a1461058257806354d1f13d1461053a57806357859ce0146104485780636655dddc14610426578063715018a6146103da5780638355ec6c1461037957806386b5dec9146103395780638da5cb5b1461030c5780639f83901c146102b9578063ce3fe7ee146101e2578063f04e283e14610192578063f2fde38b14610156578063f3fef3a31461010f5763fee81cf4146100d757600080fd5b3461010a57602036600319011261010a576100f0610775565b63389a75e1600c52600052602080600c2054604051908152f35b600080fd5b3461010a57604036600319011261010a57610128610775565b60243561013361086c565b47811161014557610143916108a5565b005b631a72054d60e01b60005260046000fd5b602036600319011261010a5761016a610775565b61017261086c565b8060601b156101845761014390610f61565b637448fbae6000526004601cfd5b602036600319011261010a576101a6610775565b6101ae61086c565b63389a75e1600c52806000526020600c2090815442116101d45760006101439255610f61565b636f5e88186000526004601cfd5b3461010a57602036600319011261010a576101fb610775565b61020361086c565b604051630207783760e01b81526001600160a01b039190911690602081600481855afa9081156102ad57600091610267575b5061ffff16600090815260026020526040902080546001600160a01b0319166001600160a01b03909216919091179055005b6020813d6020116102a5575b8161028060209383610753565b810103126102a157519061ffff8216820361029e575061ffff610235565b80fd5b5080fd5b3d9150610273565b6040513d6000823e3d90fd5b3461010a57602036600319011261010a5760043561ffff811680910361010a576102e161086c565b61271081116102fb5761ffff196000541617600055600080f35b631356a63b60e01b60005260046000fd5b3461010a57600036600319011261010a57638b78c6d819546040516001600160a01b039091168152602090f35b3461010a57602036600319011261010a5760043561ffff811680910361010a576000526002602052602060018060a01b0360406000205416604051908152f35b3461010a57602036600319011261010a5760043560ff811680910361010a5760038110156103c4576020906001600160a01b03906001906103b99061081d565b015416604051908152f35b634e487b7160e01b600052602160045260246000fd5b600036600319011261010a576103ee61086c565b6000638b78c6d819547f8be0079c531659141344cd1fd0a4f28419497f9722a3daafe3b4186f6b6457e08280a36000638b78c6d81955005b3461010a57600036600319011261010a57602061ffff60005416604051908152f35b606036600319011261010a5760043567ffffffffffffffff811161010a5761047490369060040161078b565b602435600381101561010a5760443567ffffffffffffffff811161010a576104a090369060040161078b565b6000805461ffff169491939190851561052957506104cf612710946104e6946104da97946104e1945a9a610cb3565b959095965a90610836565b3a90610859565b610859565b04803410610145575b34610509575b5061050560405192839283610801565b0390f35b6105139034610836565b80156104f55761052390326108a5565b826104f5565b956105349550610cb3565b916104ef565b600036600319011261010a5763389a75e1600c523360005260006020600c2055337ffa7b8eab7da67f412cc9575ed43464468f9bfbae89d1675917346ca6d8fe3c92600080a2005b602036600319011261010a5760043567ffffffffffffffff811161010a576105ae90369060040161078b565b6000805461ffff16919082156105d757506104e66104da926104e16104cf612710945a976109c0565b9261053492506109c0565b3461010a57602036600319011261010a5760043560ff811680910361010a5760038110156103c45761061560209161081d565b54604051908152f35b3461010a57606036600319011261010a57600435600381101561010a57604036602319011261010a576040519061065482610705565b60243582526044356001600160a01b038116810361010a576106866001926020850192835261068161086c565b61081d565b92518355818060a01b0390511691019060018060a01b03166bffffffffffffffffffffffff60a01b825416179055600080f35b600036600319011261010a5763389a75e1600c52336000526202a30042016020600c2055337fdbf36a107da19e49527a7176a1babf963b4b0ff8cde35ee35d6cd8f1f9ac7e1d600080a2005b6040810190811067ffffffffffffffff82111761072157604052565b634e487b7160e01b600052604160045260246000fd5b60e0810190811067ffffffffffffffff82111761072157604052565b90601f8019910116810190811067ffffffffffffffff82111761072157604052565b600435906001600160a01b038216820361010a57565b9181601f8401121561010a5782359167ffffffffffffffff831161010a576020838186019501011161010a57565b60005b8381106107cc5750506000910152565b81810151838201526020016107bc565b906020916107f5815180928185528580860191016107b9565b601f01601f1916010190565b60409061081a93921515815281602082015201906107dc565b90565b60038110156103c4576000526001602052604060002090565b9190820391821161084357565b634e487b7160e01b600052601160045260246000fd5b8181029291811591840414171561084357565b638b78c6d81954330361087b57565b6382b429006000526004601cfd5b67ffffffffffffffff811161072157601f01601f191660200190565b600080809381935af13d156108ef573d6108be81610889565b906108cc6040519283610753565b8152600060203d92013e5b156108de57565b63c40a532b60e01b60005260046000fd5b6108d7565b60405190610903604083610753565b601982527f556e737570706f727465642071756f74652076657273696f6e000000000000006020830152565b919060408382031261010a578251801515810361010a579260208101519067ffffffffffffffff821161010a570181601f8201121561010a57805161097381610889565b926109816040519485610753565b8184526020828401011161010a5761081a91602080850191016107b9565b908060209392818452848401376000828201840152601f01601f1916010190565b9190600060c06040516109d281610737565b8281528260208201528260408201528260608201528260808201528260a082015201528060041161010a576002830180356001600160f01b0319169190600a821061010a57600885019485356001600160f01b03191692600c811061010a57600a8201356001600160f01b03191692601c821061010a578160021161010a57610a5b6002610889565b90610a696040519283610753565b60028252361061010a57610a8e81600285602061ffff95013760006022820152610fba565b16968160081161010a57610aa26004610889565b90610ab06040519283610753565b60048252361061010a5760048084016020830137600060248201526001600160e01b031990610ade90610fba565b60e01b16968160301161010a5760405193610af885610737565b8185526020850196875260408501988952606085019586526080850190815260a08501906fffffffffffffffffffffffffffffffff19600c86013516825260c08601926bffffffffffffffffffffffff19601c870135168452600052600260205260018060a01b0360406000205416968715610c9b57604051633c52544560e21b8152965161ffff16600488015297516001600160f01b0319908116602488015299516001600160e01b03191660448701529651891660648601529551909716608484015293516fffffffffffffffffffffffffffffffff191660a483015294516bffffffffffffffffffffffff191660c482015261010060e48201529360009285929183918291610c0f9161010484019161099f565b03915afa9081156102ad57600092600092610c73575b507f2a0eadb6ff52afa314e513d000bde06ac5db14a2a06a4f86ee5445dd314cd0618284610c6e60405192839215158352600060208401526060604084015260608301906107dc565b0390a1565b909250610c9391503d806000833e610c8b8183610753565b81019061092f565b909138610c25565b5050505050505050509050610cae6108f4565b600091565b90949294600094610cc38461081d565b60405190610cd082610705565b80548252600101546001600160a01b0316602082019081526003861098908915610f4d5760018703610ea85760018060a01b039051169151926020896040518789823780888101838152039060025afa15610e9d57885193833b15610e995791899391610d5c936040519687958694859463ab750e7560e01b865260606004870152606486019161099f565b916024840152604483015203915afa8015610e6657908691610e84575b50505b80600411610e805760028281013560f01c865260205260408520546001600160a01b0316928315610e7157856040518095639ffa5fd960e01b8252602060048301528180610dce60248201888a61099f565b03915afa8015610e665786948791610e46575b50958497604051951515865215610e32575083928392610c6e9260207f2a0eadb6ff52afa314e513d000bde06ac5db14a2a06a4f86ee5445dd314cd06197015260606040850152606084019161099f565b634e487b7160e01b81526021600452602490fd5b9050610e5d9194503d8088833e610c8b8183610753565b93909338610de1565b6040513d88823e3d90fd5b5050505090915061081a6108f4565b8480fd5b81610e8e91610753565b610e80578438610d79565b8980fd5b6040513d8a823e3d90fd5b90929060028703610f3e575191516001600160a01b0390921691823b15610f3a5791610f11939189936040519586948593849363020a49e360e51b8552600485015260606024850152610eff606485018b8d61099f565b8481036003190160448601529161099f565b03915afa8015610e6657610f26575b50610d7c565b85610f3391969296610753565b9338610f20565b8880fd5b63146af65760e21b8952600489fd5b634e487b7160e01b89526021600452602489fd5b60018060a01b031680638b78c6d819547f8be0079c531659141344cd1fd0a4f28419497f9722a3daafe3b4186f6b6457e0600080a3638b78c6d81955565b603f81116108435760100a90565b9190820180921161084357565b60009190825b81518410156110635781840160200151600090600186901b6001600160ff1b038716870361104f57611000610ff482610f9f565b600f8460f81c16610859565b926001820180921161103b57506110339261102d6001959361102461102d94610f9f565b9060fc1c610859565b90610fad565b930192610fc0565b634e487b7160e01b81526011600452602490fd5b634e487b7160e01b83526011600452602483fd5b92505056fea26469706673582212200f721cd67d7df1fcc443ef540ef91cd987400fe2190b712fa343c450e6d6c8c464736f6c634300081b0033","linkReferences":{}},"methodIdentifiers":{"cancelOwnershipHandover()":"54d1f13d","completeOwnershipHandover(address)":"f04e283e","getBp()":"6655dddc","owner()":"8da5cb5b","ownershipHandoverExpiresAt(address)":"fee81cf4","programIdentifier(uint8)":"3043d2b1","quoteVerifiers(uint16)":"86b5dec9","renounceOwnership()":"715018a6","requestOwnershipHandover()":"25692962","setBp(uint16)":"9f83901c","setQuoteVerifier(address)":"ce3fe7ee","setZkConfiguration(uint8,(bytes32,address))":"25e11c75","transferOwnership(address)":"f2fde38b","verifyAndAttestOnChain(bytes)":"38d8480a","verifyAndAttestWithZKProof(bytes,uint8,bytes)":"57859ce0","withdraw(address,uint256)":"f3fef3a3","zkVerifier(uint8)":"8355ec6c"},"id":1}