{"abi":[{"type":"constructor","inputs":[],"stateMutability":"nonpayable"},{"type":"function","name":"cancelOwnershipHandover","inputs":[],"outputs":[],"stateMutability":"payable"},{"type":"function","name":"completeOwnershipHandover","inputs":[{"name":"pendingOwner","type":"address","internalType":"address"}],"outputs":[],"stateMutability":"payable"},{"type":"function","name":"owner","inputs":[],"outputs":[{"name":"result","type":"address","internalType":"address"}],"stateMutability":"view"},{"type":"function","name":"ownershipHandoverExpiresAt","inputs":[{"name":"pendingOwner","type":"address","internalType":"address"}],"outputs":[{"name":"result","type":"uint256","internalType":"uint256"}],"stateMutability":"view"},{"type":"function","name":"quoteVerifiers","inputs":[{"name":"quoteVersion","type":"uint16","internalType":"uint16"}],"outputs":[{"name":"verifier","type":"address","internalType":"contract IQuoteVerifier"}],"stateMutability":"view"},{"type":"function","name":"renounceOwnership","inputs":[],"outputs":[],"stateMutability":"payable"},{"type":"function","name":"requestOwnershipHandover","inputs":[],"outputs":[],"stateMutability":"payable"},{"type":"function","name":"setQuoteVerifier","inputs":[{"name":"verifier","type":"address","internalType":"address"}],"outputs":[],"stateMutability":"nonpayable"},{"type":"function","name":"transferOwnership","inputs":[{"name":"newOwner","type":"address","internalType":"address"}],"outputs":[],"stateMutability":"payable"},{"type":"function","name":"verifyAndAttestOnChain","inputs":[{"name":"rawQuote","type":"bytes","internalType":"bytes"}],"outputs":[{"name":"success","type":"bool","internalType":"bool"},{"name":"output","type":"bytes","internalType":"bytes"}],"stateMutability":"view"},{"type":"event","name":"OwnershipHandoverCanceled","inputs":[{"name":"pendingOwner","type":"address","indexed":true,"internalType":"address"}],"anonymous":false},{"type":"event","name":"OwnershipHandoverRequested","inputs":[{"name":"pendingOwner","type":"address","indexed":true,"internalType":"address"}],"anonymous":false},{"type":"event","name":"OwnershipTransferred","inputs":[{"name":"oldOwner","type":"address","indexed":true,"internalType":"address"},{"name":"newOwner","type":"address","indexed":true,"internalType":"address"}],"anonymous":false},{"type":"error","name":"AlreadyInitialized","inputs":[]},{"type":"error","name":"NewOwnerIsZeroAddress","inputs":[]},{"type":"error","name":"NoHandoverRequest","inputs":[]},{"type":"error","name":"Unauthorized","inputs":[]}],"bytecode":{"object":"0x60806040523460465733638b78c6d819553360007f8be0079c531659141344cd1fd0a4f28419497f9722a3daafe3b4186f6b6457e08180a360405161098c908161004c8239f35b600080fdfe6080604052600436101561001257600080fd5b60003560e01c806325692962146103dd57806338d8480a1461034557806354d1f13d146102fd578063715018a6146102b157806386b5dec9146102715780638da5cb5b14610244578063ce3fe7ee14610171578063f04e283e14610116578063f2fde38b146100cd5763fee81cf41461008a57600080fd5b346100c85760203660031901126100c8576004356001600160a01b03811681036100c85763389a75e1600c52600052602080600c2054604051908152f35b600080fd5b60203660031901126100c8576004356001600160a01b03811681036100c8576100f4610809565b8060601b156101085761010690610826565b005b637448fbae6000526004601cfd5b60203660031901126100c8576004356001600160a01b03811681036100c85761013d610809565b63389a75e1600c52806000526020600c2090815442116101635760006101069255610826565b636f5e88186000526004601cfd5b346100c85760203660031901126100c8576004356001600160a01b038116908190036100c85761019f610809565b604051630207783760e01b8152602081600481855afa908115610238576000916101f2575b5061ffff1660005260006020526040600020906bffffffffffffffffffffffff60a01b825416179055600080f35b6020813d602011610230575b8161020b6020938361047e565b8101031261022c57519061ffff82168203610229575061ffff6101c4565b80fd5b5080fd5b3d91506101fe565b6040513d6000823e3d90fd5b346100c85760003660031901126100c857638b78c6d819546040516001600160a01b039091168152602090f35b346100c85760203660031901126100c85760043561ffff81168091036100c8576000526000602052602060018060a01b0360406000205416604051908152f35b60003660031901126100c8576102c5610809565b6000638b78c6d819547f8be0079c531659141344cd1fd0a4f28419497f9722a3daafe3b4186f6b6457e08280a36000638b78c6d81955005b60003660031901126100c85763389a75e1600c523360005260006020600c2055337ffa7b8eab7da67f412cc9575ed43464468f9bfbae89d1675917346ca6d8fe3c92600080a2005b346100c85760203660031901126100c85760043567ffffffffffffffff81116100c857366023820112156100c85780600401359067ffffffffffffffff82116100c85736602483830101116100c85760609160246103a392016104bc565b919060405192839115158252604060208301526103cf8151809281604086015260208686019101610429565b601f01601f19168101030190f35b60003660031901126100c85763389a75e1600c52336000526202a30042016020600c2055337fdbf36a107da19e49527a7176a1babf963b4b0ff8cde35ee35d6cd8f1f9ac7e1d600080a2005b60005b83811061043c5750506000910152565b818101518382015260200161042c565b60e0810190811067ffffffffffffffff82111761046857604052565b634e487b7160e01b600052604160045260246000fd5b90601f8019910116810190811067ffffffffffffffff82111761046857604052565b67ffffffffffffffff811161046857601f01601f191660200190565b600060c06040516104cc8161044c565b8281528260208201528260408201528260608201528260808201528260a08201520152816004116100c857600281019081356001600160f01b03191690600a84106100c857600881019283356001600160f01b03191690600c86106100c857600a8301356001600160f01b03191690601c87106100c857866002116100c85761055560026104a0565b90610563604051928361047e565b6002825236106100c85761058881600286602061ffff950137600060228201526108a8565b1694866008116100c85761059c60046104a0565b906105aa604051928361047e565b6004825236106100c85760048085016020830137600060248201526001600160e01b0319906105d8906108a8565b60e01b1695806030116100c857604051906105f28261044c565b8682526020820195865260408201978852606082019384526080820192835260a08201936fffffffffffffffffffffffffffffffff19600c87013516855260c08301976bffffffffffffffffffffffff19601c880135168952600052600060205260018060a01b03604060002054169586156107c057604051633c52544560e21b8152935161ffff16600485015296516001600160f01b0319908116602485015298516001600160e01b031916604484015251881660648301529151909616608487015290516fffffffffffffffffffffffffffffffff191660a486015292516bffffffffffffffffffffffff191660c485015261010060e4850152610104840183905260009284928391610124918391908190838501378181018301879052601f01601f191681010301915afa801561023857600091829161073457509091565b90503d8083833e610745818361047e565b81019160408284031261022957815191821515830361022c5760208101519067ffffffffffffffff82116107bc570183601f8201121561022c5780519161078b836104a0565b94610799604051968761047e565b838652602084840101116102295750906107b99160208086019101610429565b91565b8280fd5b50505050505050505050604051906107d960408361047e565b601982527f556e737570706f727465642071756f74652076657273696f6e00000000000000602083015260009190565b638b78c6d81954330361081857565b6382b429006000526004601cfd5b60018060a01b031680638b78c6d819547f8be0079c531659141344cd1fd0a4f28419497f9722a3daafe3b4186f6b6457e0600080a3638b78c6d81955565b8181029291811591840414171561087757565b634e487b7160e01b600052601160045260246000fd5b603f81116108775760100a90565b9190820180921161087757565b60009190825b81518410156109515781840160200151600090600186901b6001600160ff1b038716870361093d576108ee6108e28261088d565b600f8460f81c16610864565b926001820180921161092957506109219261091b6001959361091261091b9461088d565b9060fc1c610864565b9061089b565b9301926108ae565b634e487b7160e01b81526011600452602490fd5b634e487b7160e01b83526011600452602483fd5b92505056fea2646970667358221220084f89e9c969067272cf9ea25246a46322c45bdafe1f2b28e5d45914823b88c364736f6c634300081b0033","linkReferences":{}},"methodIdentifiers":{"cancelOwnershipHandover()":"54d1f13d","completeOwnershipHandover(address)":"f04e283e","owner()":"8da5cb5b","ownershipHandoverExpiresAt(address)":"fee81cf4","quoteVerifiers(uint16)":"86b5dec9","renounceOwnership()":"715018a6","requestOwnershipHandover()":"25692962","setQuoteVerifier(address)":"ce3fe7ee","transferOwnership(address)":"f2fde38b","verifyAndAttestOnChain(bytes)":"38d8480a"},"id":0}