{"abi":[{"type":"constructor","inputs":[{"name":"risc0Verifier","type":"address","internalType":"address"},{"name":"imageId","type":"bytes32","internalType":"bytes32"}],"stateMutability":"nonpayable"},{"type":"function","name":"DCAP_RISC0_IMAGE_ID","inputs":[],"outputs":[{"name":"","type":"bytes32","internalType":"bytes32"}],"stateMutability":"view"},{"type":"function","name":"cancelOwnershipHandover","inputs":[],"outputs":[],"stateMutability":"payable"},{"type":"function","name":"completeOwnershipHandover","inputs":[{"name":"pendingOwner","type":"address","internalType":"address"}],"outputs":[],"stateMutability":"payable"},{"type":"function","name":"owner","inputs":[],"outputs":[{"name":"result","type":"address","internalType":"address"}],"stateMutability":"view"},{"type":"function","name":"ownershipHandoverExpiresAt","inputs":[{"name":"pendingOwner","type":"address","internalType":"address"}],"outputs":[{"name":"result","type":"uint256","internalType":"uint256"}],"stateMutability":"view"},{"type":"function","name":"quoteVerifiers","inputs":[{"name":"quoteVersion","type":"uint16","internalType":"uint16"}],"outputs":[{"name":"verifier","type":"address","internalType":"contract IQuoteVerifier"}],"stateMutability":"view"},{"type":"function","name":"renounceOwnership","inputs":[],"outputs":[],"stateMutability":"payable"},{"type":"function","name":"requestOwnershipHandover","inputs":[],"outputs":[],"stateMutability":"payable"},{"type":"function","name":"riscZeroVerifier","inputs":[],"outputs":[{"name":"","type":"address","internalType":"contract IRiscZeroVerifier"}],"stateMutability":"view"},{"type":"function","name":"setQuoteVerifier","inputs":[{"name":"verifier","type":"address","internalType":"address"}],"outputs":[],"stateMutability":"nonpayable"},{"type":"function","name":"transferOwnership","inputs":[{"name":"newOwner","type":"address","internalType":"address"}],"outputs":[],"stateMutability":"payable"},{"type":"function","name":"updateRisc0Config","inputs":[{"name":"risc0Verifier","type":"address","internalType":"address"},{"name":"imageId","type":"bytes32","internalType":"bytes32"}],"outputs":[],"stateMutability":"nonpayable"},{"type":"function","name":"verifyAndAttestOnChain","inputs":[{"name":"rawQuote","type":"bytes","internalType":"bytes"}],"outputs":[{"name":"success","type":"bool","internalType":"bool"},{"name":"output","type":"bytes","internalType":"bytes"}],"stateMutability":"view"},{"type":"function","name":"verifyAndAttestWithZKProof","inputs":[{"name":"journal","type":"bytes","internalType":"bytes"},{"name":"seal","type":"bytes","internalType":"bytes"}],"outputs":[{"name":"success","type":"bool","internalType":"bool"},{"name":"output","type":"bytes","internalType":"bytes"}],"stateMutability":"view"},{"type":"event","name":"OwnershipHandoverCanceled","inputs":[{"name":"pendingOwner","type":"address","indexed":true,"internalType":"address"}],"anonymous":false},{"type":"event","name":"OwnershipHandoverRequested","inputs":[{"name":"pendingOwner","type":"address","indexed":true,"internalType":"address"}],"anonymous":false},{"type":"event","name":"OwnershipTransferred","inputs":[{"name":"oldOwner","type":"address","indexed":true,"internalType":"address"},{"name":"newOwner","type":"address","indexed":true,"internalType":"address"}],"anonymous":false},{"type":"error","name":"AlreadyInitialized","inputs":[]},{"type":"error","name":"NewOwnerIsZeroAddress","inputs":[]},{"type":"error","name":"NoHandoverRequest","inputs":[]},{"type":"error","name":"Unauthorized","inputs":[]}],"bytecode":{"object":"0x6080346100ac57601f610cf338819003918201601f19168301916001600160401b038311848410176100b15780849260409485528339810103126100ac5780516001600160a01b03811691908290036100ac57602001519033638b78c6d819553360007f8be0079c531659141344cd1fd0a4f28419497f9722a3daafe3b4186f6b6457e08180a3600080546001600160a01b031916919091179055600155604051610c2b90816100c88239f35b600080fd5b634e487b7160e01b600052604160045260246000fdfe608060408181526004918236101561001657600080fd5b600092833560e01c91826304daae79146105005750816313f19c80146104a3578163256929621461045857816338d8480a1461040857816354d1f13d146103c2578163715018a61461037c57816386b5dec91461033d5781638da5cb5b14610310578163cb7f8944146102c8578163ce3fe7ee14610201578163eec47a18146101e2578163f04e283e14610162578163f2fde38b146100f5575063fee81cf4146100bf57600080fd5b346100f15760203660031901126100f1576020916100db6105af565b9063389a75e1600c525281600c20549051908152f35b5080fd5b839060203660031901126100f15761010b6105af565b90610114610afc565b8160601b15610157575060018060a01b0316638b78c6d8198181547f8be0079c531659141344cd1fd0a4f28419497f9722a3daafe3b4186f6b6457e08580a35580f35b637448fbae8352601cfd5b839060203660031901126100f1576101786105af565b90610181610afc565b63389a75e1600c528183526020600c2090815442116101d7575082905560018060a01b0316638b78c6d8198181547f8be0079c531659141344cd1fd0a4f28419497f9722a3daafe3b4186f6b6457e08580a35580f35b636f5e88188452601cfd5b5050346100f157816003193601126100f1576020906001549051908152f35b919050346102c4576020806003193601126102c05761021e6105af565b610226610afc565b8251630207783760e01b81526001600160a01b0391909116938290829081875afa9081156102b6578591610276575b5061ffff16845260029052822080546001600160a01b031916909117905580f35b90508181813d83116102af575b61028d8183610613565b810103126102ab57519061ffff821682036102ab579061ffff610255565b8480fd5b503d610283565b83513d87823e3d90fd5b8380fd5b8280fd5b5050346100f15736600319011261030d576102e16105af565b6102e9610afc565b81546001600160a01b0319166001600160a01b039190911617815560243560015580f35b80fd5b5050346100f157816003193601126100f157638b78c6d8195490516001600160a01b039091168152602090f35b9050346102c45760203660031901126102c4573561ffff81168091036102c457825260026020908152918190205490516001600160a01b039091168152f35b838060031936011261030d57610390610afc565b80638b78c6d8198181547f8be0079c531659141344cd1fd0a4f28419497f9722a3daafe3b4186f6b6457e08280a35580f35b838060031936011261030d5763389a75e1600c52338152806020600c2055337ffa7b8eab7da67f412cc9575ed43464468f9bfbae89d1675917346ca6d8fe3c928280a280f35b82843461030d57602036600319011261030d5782359067ffffffffffffffff821161030d57506104416104549361044792369101610524565b9061088a565b929091519283928361057a565b0390f35b838060031936011261030d5763389a75e1600c523381526202a30042016020600c2055337fdbf36a107da19e49527a7176a1babf963b4b0ff8cde35ee35d6cd8f1f9ac7e1d8280a280f35b82843461030d578160031936011261030d5767ffffffffffffffff9280358481116102c4576104d59036908301610524565b94909260243591821161030d5750916104f8610454959261044794369101610524565b92909161071d565b8490346100f157816003193601126100f15790546001600160a01b03168152602090f35b9181601f840112156105525782359167ffffffffffffffff8311610552576020838186019501011161055257565b600080fd5b60005b83811061056a5750506000910152565b818101518382015260200161055a565b909160609215158252604060208301526105a38151809281604086015260208686019101610557565b601f01601f1916010190565b600435906001600160a01b038216820361055257565b60e0810190811067ffffffffffffffff8211176105e157604052565b634e487b7160e01b600052604160045260246000fd5b6040810190811067ffffffffffffffff8211176105e157604052565b90601f8019910116810190811067ffffffffffffffff8211176105e157604052565b908060209392818452848401376000828201840152601f01601f1916010190565b604051906040820182811067ffffffffffffffff8211176105e157604052601982527f556e737570706f727465642071756f74652076657273696f6e000000000000006020830152565b919060408382031261055257825180151581036105525792602081015167ffffffffffffffff9182821161055257019082601f830112156105525781519081116105e157604051926106fc601f8301601f191660200185610613565b818452602082840101116105525761071a9160208085019101610557565b90565b9092919260009360018060a01b039081865416600154916040966020898951888a823780898101838152039060025afa1561088057885193833b1561087c5791899391610788938a519687958694859463ab750e7560e01b8652606060048701526064860191610635565b916024840152604483015203915afa801561087257610843575b50816002116102ab57823560f01c855260026020528385205416908115610836579184916107ed93855180958194829363d9ed324f60e01b8452602060048501526024840191610635565b03915afa91821561082d5750828092610807575b50509091565b90915061082692503d8091833e61081e8183610613565b8101906106a0565b3880610801565b513d84823e3d90fd5b505050509061071a610656565b67ffffffffffffffff819692961161085e57845293386107a2565b634e487b7160e01b82526041600452602482fd5b85513d88823e3d90fd5b8980fd5b87513d8a823e3d90fd5b600060c060405161089a816105c5565b8281528260208201528260408201528260608201528260808201528260a082015201528160041161055257600281019082600a11610552576008810183600c116105525783601c116105525783600211610552576040516108fa816105f7565b600281523684116105525761092081600285602061ffff95013760006022820152610b5d565b16908460081161055257604051610936816105f7565b600481523682116105525760048085016020830137600060248201526001600160e01b03199061096590610b5d565b60e01b1685603011610552576040519461097e866105c5565b838652356001600160f01b0319908116602080880191909152604080880193909352923581166060870152600a850135166080860152600c8401356001600160801b03191660a0860152601c8401356bffffffffffffffffffffffff191660c0860152600092835260029091529020546001600160a01b03168015610aeb5760408051633c52544560e21b8152845161ffff16600482015260208501516001600160f01b03199081166024830152918501516001600160e01b03191660448201526060850151821660648201526080850151909116608482015260a08401516001600160801b03191660a482015260c0909301516bffffffffffffffffffffffff191660c484015261010060e484015291926000928492909183918291610aab9161010484019190610635565b03915afa8015610adf57600091600091610ac457509091565b9050610adb91503d806000833e61081e8183610613565b9091565b6040513d6000823e3d90fd5b50505050610af7610656565b600091565b638b78c6d819543303610b0b57565b6382b429006000526004601cfd5b81810292918115918404141715610b2c57565b634e487b7160e01b600052601160045260246000fd5b603f8111610b2c5760100a90565b91908201809211610b2c57565b600091908290815b8151851015610bef578185016020015160019086821b6001600160ff1b0388168803610bdb57610ba3610b9782610b42565b600f8460f81c16610b19565b928101809111610bdb57610bd392610bcd60019593610bc4610bcd94610b42565b9060fc1c610b19565b90610b50565b940193610b65565b634e487b7160e01b86526011600452602486fd5b9350505056fea2646970667358221220126a9e354348f3a07e2aa2535eb9d76d312b77a2630a22644face6346120799d64736f6c63430008180033","linkReferences":{}},"methodIdentifiers":{"DCAP_RISC0_IMAGE_ID()":"eec47a18","cancelOwnershipHandover()":"54d1f13d","completeOwnershipHandover(address)":"f04e283e","owner()":"8da5cb5b","ownershipHandoverExpiresAt(address)":"fee81cf4","quoteVerifiers(uint16)":"86b5dec9","renounceOwnership()":"715018a6","requestOwnershipHandover()":"25692962","riscZeroVerifier()":"04daae79","setQuoteVerifier(address)":"ce3fe7ee","transferOwnership(address)":"f2fde38b","updateRisc0Config(address,bytes32)":"cb7f8944","verifyAndAttestOnChain(bytes)":"38d8480a","verifyAndAttestWithZKProof(bytes,bytes)":"13f19c80"},"id":0}