{"abi":[{"type":"constructor","inputs":[{"name":"owner","type":"address","internalType":"address"}],"stateMutability":"nonpayable"},{"type":"function","name":"cancelOwnershipHandover","inputs":[],"outputs":[],"stateMutability":"payable"},{"type":"function","name":"completeOwnershipHandover","inputs":[{"name":"pendingOwner","type":"address","internalType":"address"}],"outputs":[],"stateMutability":"payable"},{"type":"function","name":"getBp","inputs":[],"outputs":[{"name":"","type":"uint16","internalType":"uint16"}],"stateMutability":"view"},{"type":"function","name":"owner","inputs":[],"outputs":[{"name":"result","type":"address","internalType":"address"}],"stateMutability":"view"},{"type":"function","name":"ownershipHandoverExpiresAt","inputs":[{"name":"pendingOwner","type":"address","internalType":"address"}],"outputs":[{"name":"result","type":"uint256","internalType":"uint256"}],"stateMutability":"view"},{"type":"function","name":"programIdentifier","inputs":[{"name":"zkCoProcessorType","type":"uint8","internalType":"uint8"}],"outputs":[{"name":"","type":"bytes32","internalType":"bytes32"}],"stateMutability":"view"},{"type":"function","name":"quoteVerifiers","inputs":[{"name":"quoteVersion","type":"uint16","internalType":"uint16"}],"outputs":[{"name":"verifier","type":"address","internalType":"contract IQuoteVerifier"}],"stateMutability":"view"},{"type":"function","name":"renounceOwnership","inputs":[],"outputs":[],"stateMutability":"payable"},{"type":"function","name":"requestOwnershipHandover","inputs":[],"outputs":[],"stateMutability":"payable"},{"type":"function","name":"setBp","inputs":[{"name":"_newBp","type":"uint16","internalType":"uint16"}],"outputs":[],"stateMutability":"nonpayable"},{"type":"function","name":"setQuoteVerifier","inputs":[{"name":"verifier","type":"address","internalType":"address"}],"outputs":[],"stateMutability":"nonpayable"},{"type":"function","name":"setZkConfiguration","inputs":[{"name":"zkCoProcessor","type":"uint8","internalType":"enum ZkCoProcessorType"},{"name":"config","type":"tuple","internalType":"struct ZkCoProcessorConfig","components":[{"name":"dcapProgramIdentifier","type":"bytes32","internalType":"bytes32"},{"name":"zkVerifier","type":"address","internalType":"address"}]}],"outputs":[],"stateMutability":"nonpayable"},{"type":"function","name":"transferOwnership","inputs":[{"name":"newOwner","type":"address","internalType":"address"}],"outputs":[],"stateMutability":"payable"},{"type":"function","name":"verifyAndAttestOnChain","inputs":[{"name":"rawQuote","type":"bytes","internalType":"bytes"}],"outputs":[{"name":"success","type":"bool","internalType":"bool"},{"name":"output","type":"bytes","internalType":"bytes"}],"stateMutability":"payable"},{"type":"function","name":"verifyAndAttestWithZKProof","inputs":[{"name":"output","type":"bytes","internalType":"bytes"},{"name":"zkCoprocessor","type":"uint8","internalType":"enum ZkCoProcessorType"},{"name":"proofBytes","type":"bytes","internalType":"bytes"}],"outputs":[{"name":"success","type":"bool","internalType":"bool"},{"name":"verifiedOutput","type":"bytes","internalType":"bytes"}],"stateMutability":"payable"},{"type":"function","name":"withdraw","inputs":[{"name":"beneficiary","type":"address","internalType":"address"},{"name":"amount","type":"uint256","internalType":"uint256"}],"outputs":[],"stateMutability":"nonpayable"},{"type":"function","name":"zkVerifier","inputs":[{"name":"zkCoProcessorType","type":"uint8","internalType":"uint8"}],"outputs":[{"name":"","type":"address","internalType":"address"}],"stateMutability":"view"},{"type":"event","name":"AttestationSubmitted","inputs":[{"name":"success","type":"bool","indexed":false,"internalType":"bool"},{"name":"verifierType","type":"uint8","indexed":false,"internalType":"enum ZkCoProcessorType"},{"name":"output","type":"bytes","indexed":false,"internalType":"bytes"}],"anonymous":false},{"type":"event","name":"OwnershipHandoverCanceled","inputs":[{"name":"pendingOwner","type":"address","indexed":true,"internalType":"address"}],"anonymous":false},{"type":"event","name":"OwnershipHandoverRequested","inputs":[{"name":"pendingOwner","type":"address","indexed":true,"internalType":"address"}],"anonymous":false},{"type":"event","name":"OwnershipTransferred","inputs":[{"name":"oldOwner","type":"address","indexed":true,"internalType":"address"},{"name":"newOwner","type":"address","indexed":true,"internalType":"address"}],"anonymous":false},{"type":"event","name":"QuoteVerifierUpdated","inputs":[{"name":"version","type":"uint16","indexed":true,"internalType":"uint16"}],"anonymous":false},{"type":"event","name":"ZkCoProcessorUpdated","inputs":[{"name":"zkCoProcessor","type":"uint8","indexed":true,"internalType":"enum ZkCoProcessorType"},{"name":"programIdentifier","type":"bytes32","indexed":false,"internalType":"bytes32"},{"name":"zkVerifier","type":"address","indexed":false,"internalType":"address"}],"anonymous":false},{"type":"error","name":"AlreadyInitialized","inputs":[]},{"type":"error","name":"BP_Not_Valid","inputs":[]},{"type":"error","name":"Insufficient_Funds","inputs":[]},{"type":"error","name":"NewOwnerIsZeroAddress","inputs":[]},{"type":"error","name":"NoHandoverRequest","inputs":[]},{"type":"error","name":"Unauthorized","inputs":[]},{"type":"error","name":"Unknown_Zk_Coprocessor","inputs":[]},{"type":"error","name":"Withdrawal_Failed","inputs":[]}],"bytecode":{"object":"0x608034608a57601f6111db38819003918201601f19168301916001600160401b03831184841017608f57808492602094604052833981010312608a57516001600160a01b03811690819003608a5780638b78c6d8195560007f8be0079c531659141344cd1fd0a4f28419497f9722a3daafe3b4186f6b6457e08180a360405161113590816100a68239f35b600080fd5b634e487b7160e01b600052604160045260246000fdfe6080604052600436101561001257600080fd5b60003560e01c8063256929621461071057806325e11c75146106465780633043d2b11461060a57806338d8480a146105aa57806354d1f13d1461056257806357859ce0146104705780636655dddc1461044e578063715018a6146104025780638355ec6c146103a157806386b5dec9146103615780638da5cb5b146103345780639f83901c146102e1578063ce3fe7ee146101e2578063f04e283e14610192578063f2fde38b14610156578063f3fef3a31461010f5763fee81cf4146100d757600080fd5b3461010a57602036600319011261010a576100f06107cc565b63389a75e1600c52600052602080600c2054604051908152f35b600080fd5b3461010a57604036600319011261010a576101286107cc565b6024356101336108c3565b47811161014557610143916108fc565b005b639bb42d4b60e01b60005260046000fd5b602036600319011261010a5761016a6107cc565b6101726108c3565b8060601b1561018457610143906110a6565b637448fbae6000526004601cfd5b602036600319011261010a576101a66107cc565b6101ae6108c3565b63389a75e1600c52806000526020600c2090815442116101d457600061014392556110a6565b636f5e88186000526004601cfd5b3461010a57602036600319011261010a576101fb6107cc565b6102036108c3565b604051630207783760e01b81526001600160a01b039190911690602081600481855afa9081156102d55760009161028f575b5061ffff169081600052600260205260406000209060018060a01b03166bffffffffffffffffffffffff60a01b8254161790557f7e5c4b82142a1c29b046d2a0dfe9550098e0d2e1479fdd947483b3bb1ea4e6b3600080a2005b6020813d6020116102cd575b816102a8602093836107aa565b810103126102c957519061ffff821682036102c6575061ffff610235565b80fd5b5080fd5b3d915061029b565b6040513d6000823e3d90fd5b3461010a57602036600319011261010a5760043561ffff811680910361010a576103096108c3565b61271081116103235761ffff196000541617600055600080f35b631356a63b60e01b60005260046000fd5b3461010a57600036600319011261010a57638b78c6d819546040516001600160a01b039091168152602090f35b3461010a57602036600319011261010a5760043561ffff811680910361010a576000526002602052602060018060a01b0360406000205416604051908152f35b3461010a57602036600319011261010a5760043560ff811680910361010a5760038110156103ec576020906001600160a01b03906001906103e190610874565b015416604051908152f35b634e487b7160e01b600052602160045260246000fd5b600036600319011261010a576104166108c3565b6000638b78c6d819547f8be0079c531659141344cd1fd0a4f28419497f9722a3daafe3b4186f6b6457e08280a36000638b78c6d81955005b3461010a57600036600319011261010a57602061ffff60005416604051908152f35b606036600319011261010a5760043567ffffffffffffffff811161010a5761049c9036906004016107e2565b602435600381101561010a5760443567ffffffffffffffff811161010a576104c89036906004016107e2565b6000805461ffff169491939190851561055157506104f76127109461050e946105029794610509945a9a610de8565b959095965a9061088d565b3a906108b0565b6108b0565b04803410610145575b34610531575b5061052d60405192839283610858565b0390f35b61053b903461088d565b801561051d5761054b90326108fc565b8261051d565b9561055c9550610de8565b91610517565b600036600319011261010a5763389a75e1600c523360005260006020600c2055337ffa7b8eab7da67f412cc9575ed43464468f9bfbae89d1675917346ca6d8fe3c92600080a2005b602036600319011261010a5760043567ffffffffffffffff811161010a576105d69036906004016107e2565b6000805461ffff16919082156105ff575061050e610502926105096104f7612710945a97610a4e565b9261055c9250610a4e565b3461010a57602036600319011261010a5760043560ff811680910361010a5760038110156103ec5761063d602091610874565b54604051908152f35b3461010a57606036600319011261010a57600435600381101561010a57604036602319011261010a5760405161067b8161075c565b6024358152604435906001600160a01b038216820361010a577fb35538ad1e92ffa864ae8dfa1b6c312bcdb6164cf56a52ad554729a0e6c2d68a91816020604093019182526106c86108c3565b60016106d386610874565b915192838355818060a01b03905116910160018060a01b0382166bffffffffffffffffffffffff60a01b82541617905582519182526020820152a2005b600036600319011261010a5763389a75e1600c52336000526202a30042016020600c2055337fdbf36a107da19e49527a7176a1babf963b4b0ff8cde35ee35d6cd8f1f9ac7e1d600080a2005b6040810190811067ffffffffffffffff82111761077857604052565b634e487b7160e01b600052604160045260246000fd5b60e0810190811067ffffffffffffffff82111761077857604052565b90601f8019910116810190811067ffffffffffffffff82111761077857604052565b600435906001600160a01b038216820361010a57565b9181601f8401121561010a5782359167ffffffffffffffff831161010a576020838186019501011161010a57565b60005b8381106108235750506000910152565b8181015183820152602001610813565b9060209161084c81518092818552858086019101610810565b601f01601f1916010190565b6040906108719392151581528160208201520190610833565b90565b60038110156103ec576000526001602052604060002090565b9190820391821161089a57565b634e487b7160e01b600052601160045260246000fd5b8181029291811591840414171561089a57565b638b78c6d8195433036108d257565b6382b429006000526004601cfd5b67ffffffffffffffff811161077857601f01601f191660200190565b600080809381935af13d15610946573d610915816108e0565b9061092360405192836107aa565b8152600060203d92013e5b1561093557565b63c40a532b60e01b60005260046000fd5b61092e565b604051906109588261078e565b600060c0838281528260208201528260408201528260608201528260808201528260a08201520152565b604051906109916040836107aa565b601982527f556e737570706f727465642071756f74652076657273696f6e000000000000006020830152565b919060408382031261010a578251801515810361010a579260208101519067ffffffffffffffff821161010a570181601f8201121561010a578051610a01816108e0565b92610a0f60405194856107aa565b8184526020828401011161010a576108719160208085019101610810565b908060209392818452848401376000828201840152601f01601f1916010190565b90606090610a5a61094b565b50610a6361094b565b91603082108015610c35575b610be35750815161ffff166000908152600260205260409020546001600160a01b0316918215610bd25760408051633c52544560e21b8152825161ffff16600482015260208301516001600160f01b03199081166024830152918301516001600160e01b03191660448201526060830151821660648201526080830151909116608482015260a08201516001600160801b03191660a482015260c0909101516bffffffffffffffffffffffff191660c482015261010060e482015293926000928592909183918291610b4691610104840191610a2d565b03915afa9081156102d557600092600092610baa575b507f2a0eadb6ff52afa314e513d000bde06ac5db14a2a06a4f86ee5445dd314cd0618284610ba56040519283921515835260006020840152606060408401526060830190610833565b0390a1565b909250610bca91503d806000833e610bc281836107aa565b8101906109bd565b909138610b5c565b50505050610bde610982565b600091565b9392505050610bf560405192836107aa565b602782527f51756f7465206c656e677468206973206c657373207468616e20486561646572602083015266040d8cadccee8d60cb1b604083015260009190565b949180935060029491941161010a57604094855193610c5487866107aa565b60028552600283019536871161010a576002846020880137600060228701526000976000985b87518a1015610d1d57878a016020015160009060018c901b6001600160ff1b038d168d03610d0957610cba610cae826110e4565b600f8460f81c166108b0565b9260018201809211610cf55750610ced92610ce760019593610cde610ce7946110e4565b9060fc1c6108b0565b906110f2565b990198610c7a565b634e487b7160e01b81526011600452602490fd5b634e487b7160e01b83526011600452602483fd5b9396509194975092958460081161010a578460041161010a57356001600160f01b03191690600a851061010a5760088701356001600160f01b03191690600c861061010a57600a8801356001600160f01b03191692601c871061010a578660301161010a5761ffff825195610d918761078e565b168552602085015260048801356001600160e01b03191690840152838301526080820152600c8501356001600160801b03191660a0820152601c8501356bffffffffffffffffffffffff191660c082015292610a6f565b90949294600094610df884610874565b60405190610e058261075c565b80548252600101546001600160a01b03166020820190815260038610989089156110925760018703610fed5760018060a01b039051169151926020896040518789823780888101838152039060025afa15610fe257885193833b15610fde5791899391610e91936040519687958694859463ab750e7560e01b8652606060048701526064860191610a2d565b916024840152604483015203915afa8015610fd357908691610fbe575b50505b80600411610fba5760028281013560f01c865260205260408520546001600160a01b0316908115610fab57918591610f089493604051809681948293639ffa5fd960e01b8452602060048501526024840191610a2d565b03915afa908115610fa05784928592610f81575b5081948396604051941515855215610f6d575091610ba581927f2a0eadb6ff52afa314e513d000bde06ac5db14a2a06a4f86ee5445dd314cd061946020840152606060408401526060830190610833565b634e487b7160e01b81526021600452602490fd5b909250610f9891503d8086833e610bc281836107aa565b909138610f1c565b6040513d86823e3d90fd5b50505050909150610871610982565b8480fd5b81610fc8916107aa565b610fba578438610eae565b6040513d88823e3d90fd5b8980fd5b6040513d8a823e3d90fd5b90929060028703611083575191516001600160a01b0390921691823b1561107f5791611056939189936040519586948593849363020a49e360e51b8552600485015260606024850152611044606485018b8d610a2d565b84810360031901604486015291610a2d565b03915afa8015610fd35761106b575b50610eb1565b85611078919692966107aa565b9338611065565b8880fd5b63146af65760e21b8952600489fd5b634e487b7160e01b89526021600452602489fd5b60018060a01b031680638b78c6d819547f8be0079c531659141344cd1fd0a4f28419497f9722a3daafe3b4186f6b6457e0600080a3638b78c6d81955565b603f811161089a5760100a90565b9190820180921161089a5756fea2646970667358221220bc94de3ee6d93addef22b3af3b3fb91d4c6aeb6a6e74a4d98642c661ece3d09264736f6c634300081b0033","linkReferences":{}},"methodIdentifiers":{"cancelOwnershipHandover()":"54d1f13d","completeOwnershipHandover(address)":"f04e283e","getBp()":"6655dddc","owner()":"8da5cb5b","ownershipHandoverExpiresAt(address)":"fee81cf4","programIdentifier(uint8)":"3043d2b1","quoteVerifiers(uint16)":"86b5dec9","renounceOwnership()":"715018a6","requestOwnershipHandover()":"25692962","setBp(uint16)":"9f83901c","setQuoteVerifier(address)":"ce3fe7ee","setZkConfiguration(uint8,(bytes32,address))":"25e11c75","transferOwnership(address)":"f2fde38b","verifyAndAttestOnChain(bytes)":"38d8480a","verifyAndAttestWithZKProof(bytes,uint8,bytes)":"57859ce0","withdraw(address,uint256)":"f3fef3a3","zkVerifier(uint8)":"8355ec6c"},"id":1}